{
  "_format": "hh-sol-artifact-1",
  "contractName": "TriviaSphereBadge",
  "sourceName": "contracts/TriviaSphereBadge.sol",
  "abi": [
    {
      "inputs": [],
      "stateMutability": "nonpayable",
      "type": "constructor"
    },
    {
      "inputs": [
        {
          "internalType": "address",
          "name": "sender",
          "type": "address"
        },
        {
          "internalType": "uint256",
          "name": "tokenId",
          "type": "uint256"
        },
        {
          "internalType": "address",
          "name": "owner",
          "type": "address"
        }
      ],
      "name": "ERC721IncorrectOwner",
      "type": "error"
    },
    {
      "inputs": [
        {
          "internalType": "address",
          "name": "operator",
          "type": "address"
        },
        {
          "internalType": "uint256",
          "name": "tokenId",
          "type": "uint256"
        }
      ],
      "name": "ERC721InsufficientApproval",
      "type": "error"
    },
    {
      "inputs": [
        {
          "internalType": "address",
          "name": "approver",
          "type": "address"
        }
      ],
      "name": "ERC721InvalidApprover",
      "type": "error"
    },
    {
      "inputs": [
        {
          "internalType": "address",
          "name": "operator",
          "type": "address"
        }
      ],
      "name": "ERC721InvalidOperator",
      "type": "error"
    },
    {
      "inputs": [
        {
          "internalType": "address",
          "name": "owner",
          "type": "address"
        }
      ],
      "name": "ERC721InvalidOwner",
      "type": "error"
    },
    {
      "inputs": [
        {
          "internalType": "address",
          "name": "receiver",
          "type": "address"
        }
      ],
      "name": "ERC721InvalidReceiver",
      "type": "error"
    },
    {
      "inputs": [
        {
          "internalType": "address",
          "name": "sender",
          "type": "address"
        }
      ],
      "name": "ERC721InvalidSender",
      "type": "error"
    },
    {
      "inputs": [
        {
          "internalType": "uint256",
          "name": "tokenId",
          "type": "uint256"
        }
      ],
      "name": "ERC721NonexistentToken",
      "type": "error"
    },
    {
      "inputs": [
        {
          "internalType": "address",
          "name": "owner",
          "type": "address"
        }
      ],
      "name": "OwnableInvalidOwner",
      "type": "error"
    },
    {
      "inputs": [
        {
          "internalType": "address",
          "name": "account",
          "type": "address"
        }
      ],
      "name": "OwnableUnauthorizedAccount",
      "type": "error"
    },
    {
      "anonymous": false,
      "inputs": [
        {
          "indexed": true,
          "internalType": "address",
          "name": "owner",
          "type": "address"
        },
        {
          "indexed": true,
          "internalType": "address",
          "name": "approved",
          "type": "address"
        },
        {
          "indexed": true,
          "internalType": "uint256",
          "name": "tokenId",
          "type": "uint256"
        }
      ],
      "name": "Approval",
      "type": "event"
    },
    {
      "anonymous": false,
      "inputs": [
        {
          "indexed": true,
          "internalType": "address",
          "name": "owner",
          "type": "address"
        },
        {
          "indexed": true,
          "internalType": "address",
          "name": "operator",
          "type": "address"
        },
        {
          "indexed": false,
          "internalType": "bool",
          "name": "approved",
          "type": "bool"
        }
      ],
      "name": "ApprovalForAll",
      "type": "event"
    },
    {
      "anonymous": false,
      "inputs": [
        {
          "indexed": true,
          "internalType": "address",
          "name": "player",
          "type": "address"
        },
        {
          "indexed": true,
          "internalType": "uint256",
          "name": "tokenId",
          "type": "uint256"
        },
        {
          "indexed": false,
          "internalType": "uint8",
          "name": "milestoneLevel",
          "type": "uint8"
        }
      ],
      "name": "BadgeMinted",
      "type": "event"
    },
    {
      "anonymous": false,
      "inputs": [
        {
          "indexed": true,
          "internalType": "address",
          "name": "previousOwner",
          "type": "address"
        },
        {
          "indexed": true,
          "internalType": "address",
          "name": "newOwner",
          "type": "address"
        }
      ],
      "name": "OwnershipTransferred",
      "type": "event"
    },
    {
      "anonymous": false,
      "inputs": [
        {
          "indexed": true,
          "internalType": "address",
          "name": "from",
          "type": "address"
        },
        {
          "indexed": true,
          "internalType": "address",
          "name": "to",
          "type": "address"
        },
        {
          "indexed": true,
          "internalType": "uint256",
          "name": "tokenId",
          "type": "uint256"
        }
      ],
      "name": "Transfer",
      "type": "event"
    },
    {
      "inputs": [
        {
          "internalType": "address",
          "name": "to",
          "type": "address"
        },
        {
          "internalType": "uint256",
          "name": "tokenId",
          "type": "uint256"
        }
      ],
      "name": "approve",
      "outputs": [],
      "stateMutability": "nonpayable",
      "type": "function"
    },
    {
      "inputs": [
        {
          "internalType": "address",
          "name": "owner",
          "type": "address"
        }
      ],
      "name": "balanceOf",
      "outputs": [
        {
          "internalType": "uint256",
          "name": "",
          "type": "uint256"
        }
      ],
      "stateMutability": "view",
      "type": "function"
    },
    {
      "inputs": [
        {
          "internalType": "uint256",
          "name": "tokenId",
          "type": "uint256"
        }
      ],
      "name": "getApproved",
      "outputs": [
        {
          "internalType": "address",
          "name": "",
          "type": "address"
        }
      ],
      "stateMutability": "view",
      "type": "function"
    },
    {
      "inputs": [
        {
          "internalType": "address",
          "name": "",
          "type": "address"
        },
        {
          "internalType": "uint8",
          "name": "",
          "type": "uint8"
        }
      ],
      "name": "hasClaimedMilestone",
      "outputs": [
        {
          "internalType": "bool",
          "name": "",
          "type": "bool"
        }
      ],
      "stateMutability": "view",
      "type": "function"
    },
    {
      "inputs": [
        {
          "internalType": "address",
          "name": "owner",
          "type": "address"
        },
        {
          "internalType": "address",
          "name": "operator",
          "type": "address"
        }
      ],
      "name": "isApprovedForAll",
      "outputs": [
        {
          "internalType": "bool",
          "name": "",
          "type": "bool"
        }
      ],
      "stateMutability": "view",
      "type": "function"
    },
    {
      "inputs": [
        {
          "internalType": "uint256",
          "name": "",
          "type": "uint256"
        }
      ],
      "name": "milestoneLevels",
      "outputs": [
        {
          "internalType": "uint8",
          "name": "",
          "type": "uint8"
        }
      ],
      "stateMutability": "view",
      "type": "function"
    },
    {
      "inputs": [
        {
          "internalType": "uint8",
          "name": "milestoneLevel",
          "type": "uint8"
        }
      ],
      "name": "mintBadge",
      "outputs": [],
      "stateMutability": "nonpayable",
      "type": "function"
    },
    {
      "inputs": [],
      "name": "name",
      "outputs": [
        {
          "internalType": "string",
          "name": "",
          "type": "string"
        }
      ],
      "stateMutability": "view",
      "type": "function"
    },
    {
      "inputs": [],
      "name": "owner",
      "outputs": [
        {
          "internalType": "address",
          "name": "",
          "type": "address"
        }
      ],
      "stateMutability": "view",
      "type": "function"
    },
    {
      "inputs": [
        {
          "internalType": "uint256",
          "name": "tokenId",
          "type": "uint256"
        }
      ],
      "name": "ownerOf",
      "outputs": [
        {
          "internalType": "address",
          "name": "",
          "type": "address"
        }
      ],
      "stateMutability": "view",
      "type": "function"
    },
    {
      "inputs": [],
      "name": "renounceOwnership",
      "outputs": [],
      "stateMutability": "nonpayable",
      "type": "function"
    },
    {
      "inputs": [
        {
          "internalType": "address",
          "name": "from",
          "type": "address"
        },
        {
          "internalType": "address",
          "name": "to",
          "type": "address"
        },
        {
          "internalType": "uint256",
          "name": "tokenId",
          "type": "uint256"
        }
      ],
      "name": "safeTransferFrom",
      "outputs": [],
      "stateMutability": "nonpayable",
      "type": "function"
    },
    {
      "inputs": [
        {
          "internalType": "address",
          "name": "from",
          "type": "address"
        },
        {
          "internalType": "address",
          "name": "to",
          "type": "address"
        },
        {
          "internalType": "uint256",
          "name": "tokenId",
          "type": "uint256"
        },
        {
          "internalType": "bytes",
          "name": "data",
          "type": "bytes"
        }
      ],
      "name": "safeTransferFrom",
      "outputs": [],
      "stateMutability": "nonpayable",
      "type": "function"
    },
    {
      "inputs": [
        {
          "internalType": "address",
          "name": "operator",
          "type": "address"
        },
        {
          "internalType": "bool",
          "name": "approved",
          "type": "bool"
        }
      ],
      "name": "setApprovalForAll",
      "outputs": [],
      "stateMutability": "nonpayable",
      "type": "function"
    },
    {
      "inputs": [
        {
          "internalType": "bytes4",
          "name": "interfaceId",
          "type": "bytes4"
        }
      ],
      "name": "supportsInterface",
      "outputs": [
        {
          "internalType": "bool",
          "name": "",
          "type": "bool"
        }
      ],
      "stateMutability": "view",
      "type": "function"
    },
    {
      "inputs": [],
      "name": "symbol",
      "outputs": [
        {
          "internalType": "string",
          "name": "",
          "type": "string"
        }
      ],
      "stateMutability": "view",
      "type": "function"
    },
    {
      "inputs": [
        {
          "internalType": "uint256",
          "name": "tokenId",
          "type": "uint256"
        }
      ],
      "name": "tokenURI",
      "outputs": [
        {
          "internalType": "string",
          "name": "",
          "type": "string"
        }
      ],
      "stateMutability": "view",
      "type": "function"
    },
    {
      "inputs": [
        {
          "internalType": "address",
          "name": "from",
          "type": "address"
        },
        {
          "internalType": "address",
          "name": "to",
          "type": "address"
        },
        {
          "internalType": "uint256",
          "name": "tokenId",
          "type": "uint256"
        }
      ],
      "name": "transferFrom",
      "outputs": [],
      "stateMutability": "nonpayable",
      "type": "function"
    },
    {
      "inputs": [
        {
          "internalType": "address",
          "name": "newOwner",
          "type": "address"
        }
      ],
      "name": "transferOwnership",
      "outputs": [],
      "stateMutability": "nonpayable",
      "type": "function"
    }
  ],
  "bytecode": "0x608060405234801561000f575f5ffd5b50336040518060400160405280601281526020017f54726976696153706865726520426164676500000000000000000000000000008152506040518060400160405280600681526020017f5452495649410000000000000000000000000000000000000000000000000000815250815f908161008b9190610423565b50806001908161009b9190610423565b5050505f73ffffffffffffffffffffffffffffffffffffffff168173ffffffffffffffffffffffffffffffffffffffff160361010e575f6040517f1e4fbdf70000000000000000000000000000000000000000000000000000000081526004016101059190610531565b60405180910390fd5b61011d8161012360201b60201c565b5061054a565b5f60065f9054906101000a900473ffffffffffffffffffffffffffffffffffffffff1690508160065f6101000a81548173ffffffffffffffffffffffffffffffffffffffff021916908373ffffffffffffffffffffffffffffffffffffffff1602179055508173ffffffffffffffffffffffffffffffffffffffff168173ffffffffffffffffffffffffffffffffffffffff167f8be0079c531659141344cd1fd0a4f28419497f9722a3daafe3b4186f6b6457e060405160405180910390a35050565b5f81519050919050565b7f4e487b71000000000000000000000000000000000000000000000000000000005f52604160045260245ffd5b7f4e487b71000000000000000000000000000000000000000000000000000000005f52602260045260245ffd5b5f600282049050600182168061026157607f821691505b6020821081036102745761027361021d565b5b50919050565b5f819050815f5260205f209050919050565b5f6020601f8301049050919050565b5f82821b905092915050565b5f600883026102d67fffffffffffffffffffffffffffffffffffffffffffffffffffffffffffffffff8261029b565b6102e0868361029b565b95508019841693508086168417925050509392505050565b5f819050919050565b5f819050919050565b5f61032461031f61031a846102f8565b610301565b6102f8565b9050919050565b5f819050919050565b61033d8361030a565b6103516103498261032b565b8484546102a7565b825550505050565b5f5f905090565b610368610359565b610373818484610334565b505050565b5b818110156103965761038b5f82610360565b600181019050610379565b5050565b601f8211156103db576103ac8161027a565b6103b58461028c565b810160208510156103c4578190505b6103d86103d08561028c565b830182610378565b50505b505050565b5f82821c905092915050565b5f6103fb5f19846008026103e0565b1980831691505092915050565b5f61041383836103ec565b9150826002028217905092915050565b61042c826101e6565b67ffffffffffffffff811115610445576104446101f0565b5b61044f825461024a565b61045a82828561039a565b5f60209050601f83116001811461048b575f8415610479578287015190505b6104838582610408565b8655506104ea565b601f1984166104998661027a565b5f5b828110156104c05784890151825560018201915060208501945060208101905061049b565b868310156104dd57848901516104d9601f8916826103ec565b8355505b6001600288020188555050505b505050505050565b5f73ffffffffffffffffffffffffffffffffffffffff82169050919050565b5f61051b826104f2565b9050919050565b61052b81610511565b82525050565b5f6020820190506105445f830184610522565b92915050565b61274e806105575f395ff3fe608060405234801561000f575f5ffd5b506004361061011f575f3560e01c8063715018a6116100ab578063b88d4fde1161006f578063b88d4fde14610303578063c87b56dd1461031f578063e1ebcf441461034f578063e985e9c51461037f578063f2fde38b146103af5761011f565b8063715018a6146102715780638da5cb5b1461027b57806395d89b4114610299578063a22cb465146102b7578063aa62f043146102d35761011f565b806323b872dd116100f257806323b872dd146101bd57806342842e0e146101d9578063478c0ae6146101f55780636352211e1461021157806370a08231146102415761011f565b806301ffc9a71461012357806306fdde0314610153578063081812fc14610171578063095ea7b3146101a1575b5f5ffd5b61013d60048036038101906101389190611d60565b6103cb565b60405161014a9190611da5565b60405180910390f35b61015b6104ac565b6040516101689190611e2e565b60405180910390f35b61018b60048036038101906101869190611e81565b61053b565b6040516101989190611eeb565b60405180910390f35b6101bb60048036038101906101b69190611f2e565b610556565b005b6101d760048036038101906101d29190611f6c565b61056c565b005b6101f360048036038101906101ee9190611f6c565b61066b565b005b61020f600480360381019061020a9190611ff2565b61068a565b005b61022b60048036038101906102269190611e81565b610894565b6040516102389190611eeb565b60405180910390f35b61025b6004803603810190610256919061201d565b6108a5565b6040516102689190612057565b60405180910390f35b61027961095b565b005b61028361096e565b6040516102909190611eeb565b60405180910390f35b6102a1610996565b6040516102ae9190611e2e565b60405180910390f35b6102d160048036038101906102cc919061209a565b610a26565b005b6102ed60048036038101906102e891906120d8565b610a3c565b6040516102fa9190611da5565b60405180910390f35b61031d60048036038101906103189190612242565b610a66565b005b61033960048036038101906103349190611e81565b610a8b565b6040516103469190611e2e565b60405180910390f35b61036960048036038101906103649190611e81565b610ba5565b60405161037691906122d1565b60405180910390f35b610399600480360381019061039491906122ea565b610bc2565b6040516103a69190611da5565b60405180910390f35b6103c960048036038101906103c4919061201d565b610c50565b005b5f7f80ac58cd000000000000000000000000000000000000000000000000000000007bffffffffffffffffffffffffffffffffffffffffffffffffffffffff1916827bffffffffffffffffffffffffffffffffffffffffffffffffffffffff1916148061049557507f5b5e139f000000000000000000000000000000000000000000000000000000007bffffffffffffffffffffffffffffffffffffffffffffffffffffffff1916827bffffffffffffffffffffffffffffffffffffffffffffffffffffffff1916145b806104a557506104a482610cd4565b5b9050919050565b60605f80546104ba90612355565b80601f01602080910402602001604051908101604052809291908181526020018280546104e690612355565b80156105315780601f1061050857610100808354040283529160200191610531565b820191905f5260205f20905b81548152906001019060200180831161051457829003601f168201915b5050505050905090565b5f61054582610d3d565b5061054f82610dc3565b9050919050565b6105688282610563610dfc565b610e03565b5050565b5f73ffffffffffffffffffffffffffffffffffffffff168273ffffffffffffffffffffffffffffffffffffffff16036105dc575f6040517f64a0ae920000000000000000000000000000000000000000000000000000000081526004016105d39190611eeb565b60405180910390fd5b5f6105ef83836105ea610dfc565b610e15565b90508373ffffffffffffffffffffffffffffffffffffffff168173ffffffffffffffffffffffffffffffffffffffff1614610665578382826040517f64283d7b00000000000000000000000000000000000000000000000000000000815260040161065c93929190612385565b60405180910390fd5b50505050565b61068583838360405180602001604052805f815250610a66565b505050565b60058160ff16148061069f5750600a8160ff16145b806106ad5750600f8160ff16145b6106ec576040517f08c379a00000000000000000000000000000000000000000000000000000000081526004016106e390612404565b60405180910390fd5b60095f3373ffffffffffffffffffffffffffffffffffffffff1673ffffffffffffffffffffffffffffffffffffffff1681526020019081526020015f205f8260ff1660ff1681526020019081526020015f205f9054906101000a900460ff161561078b576040517f08c379a00000000000000000000000000000000000000000000000000000000081526004016107829061246c565b60405180910390fd5b5f60075f81548092919061079e906124b7565b9190505590508160085f8381526020019081526020015f205f6101000a81548160ff021916908360ff160217905550600160095f3373ffffffffffffffffffffffffffffffffffffffff1673ffffffffffffffffffffffffffffffffffffffff1681526020019081526020015f205f8460ff1660ff1681526020019081526020015f205f6101000a81548160ff0219169083151502179055506108413382610edb565b803373ffffffffffffffffffffffffffffffffffffffff167f6e79522d33e3590933a0f11623ebc984abab3d341dd3e9b88e4e2503b15d9ab68460405161088891906122d1565b60405180910390a35050565b5f61089e82610d3d565b9050919050565b5f5f73ffffffffffffffffffffffffffffffffffffffff168273ffffffffffffffffffffffffffffffffffffffff1603610916575f6040517f89c62b6400000000000000000000000000000000000000000000000000000000815260040161090d9190611eeb565b60405180910390fd5b60035f8373ffffffffffffffffffffffffffffffffffffffff1673ffffffffffffffffffffffffffffffffffffffff1681526020019081526020015f20549050919050565b610963610ef8565b61096c5f610f7f565b565b5f60065f9054906101000a900473ffffffffffffffffffffffffffffffffffffffff16905090565b6060600180546109a590612355565b80601f01602080910402602001604051908101604052809291908181526020018280546109d190612355565b8015610a1c5780601f106109f357610100808354040283529160200191610a1c565b820191905f5260205f20905b8154815290600101906020018083116109ff57829003601f168201915b5050505050905090565b610a38610a31610dfc565b8383611042565b5050565b6009602052815f5260405f20602052805f5260405f205f915091509054906101000a900460ff1681565b610a7184848461056c565b610a85610a7c610dfc565b8585858561121b565b50505050565b6060610a9682610d3d565b505f60085f8481526020019081526020015f205f9054906101000a900460ff16905060058160ff1603610b01576040518060400160405280602081526020017f697066733a2f2f62726f6e7a652d62616467652d6d657461646174612d757269815250915050610ba0565b600a8160ff1603610b4a576040518060400160405280602081526020017f697066733a2f2f73696c7665722d62616467652d6d657461646174612d757269815250915050610ba0565b600f8160ff1603610b93576040518060400160405280601e81526020017f697066733a2f2f676f6c642d62616467652d6d657461646174612d7572690000815250915050610ba0565b610b9c836113c7565b9150505b919050565b6008602052805f5260405f205f915054906101000a900460ff1681565b5f60055f8473ffffffffffffffffffffffffffffffffffffffff1673ffffffffffffffffffffffffffffffffffffffff1681526020019081526020015f205f8373ffffffffffffffffffffffffffffffffffffffff1673ffffffffffffffffffffffffffffffffffffffff1681526020019081526020015f205f9054906101000a900460ff16905092915050565b610c58610ef8565b5f73ffffffffffffffffffffffffffffffffffffffff168173ffffffffffffffffffffffffffffffffffffffff1603610cc8575f6040517f1e4fbdf7000000000000000000000000000000000000000000000000000000008152600401610cbf9190611eeb565b60405180910390fd5b610cd181610f7f565b50565b5f7f01ffc9a7000000000000000000000000000000000000000000000000000000007bffffffffffffffffffffffffffffffffffffffffffffffffffffffff1916827bffffffffffffffffffffffffffffffffffffffffffffffffffffffff1916149050919050565b5f5f610d488361142d565b90505f73ffffffffffffffffffffffffffffffffffffffff168173ffffffffffffffffffffffffffffffffffffffff1603610dba57826040517f7e273289000000000000000000000000000000000000000000000000000000008152600401610db19190612057565b60405180910390fd5b80915050919050565b5f60045f8381526020019081526020015f205f9054906101000a900473ffffffffffffffffffffffffffffffffffffffff169050919050565b5f33905090565b610e108383836001611466565b505050565b5f5f610e208461142d565b90505f73ffffffffffffffffffffffffffffffffffffffff168173ffffffffffffffffffffffffffffffffffffffff161480610e8757505f73ffffffffffffffffffffffffffffffffffffffff168573ffffffffffffffffffffffffffffffffffffffff16145b610ec6576040517f08c379a0000000000000000000000000000000000000000000000000000000008152600401610ebd9061256e565b60405180910390fd5b610ed1858585611625565b9150509392505050565b610ef4828260405180602001604052805f815250611830565b5050565b610f00610dfc565b73ffffffffffffffffffffffffffffffffffffffff16610f1e61096e565b73ffffffffffffffffffffffffffffffffffffffff1614610f7d57610f41610dfc565b6040517f118cdaa7000000000000000000000000000000000000000000000000000000008152600401610f749190611eeb565b60405180910390fd5b565b5f60065f9054906101000a900473ffffffffffffffffffffffffffffffffffffffff1690508160065f6101000a81548173ffffffffffffffffffffffffffffffffffffffff021916908373ffffffffffffffffffffffffffffffffffffffff1602179055508173ffffffffffffffffffffffffffffffffffffffff168173ffffffffffffffffffffffffffffffffffffffff167f8be0079c531659141344cd1fd0a4f28419497f9722a3daafe3b4186f6b6457e060405160405180910390a35050565b5f73ffffffffffffffffffffffffffffffffffffffff168373ffffffffffffffffffffffffffffffffffffffff16036110b2575f6040517fa9fbf51f0000000000000000000000000000000000000000000000000000000081526004016110a99190611eeb565b60405180910390fd5b5f73ffffffffffffffffffffffffffffffffffffffff168273ffffffffffffffffffffffffffffffffffffffff160361112257816040517f5b08ba180000000000000000000000000000000000000000000000000000000081526004016111199190611eeb565b60405180910390fd5b8060055f8573ffffffffffffffffffffffffffffffffffffffff1673ffffffffffffffffffffffffffffffffffffffff1681526020019081526020015f205f8473ffffffffffffffffffffffffffffffffffffffff1673ffffffffffffffffffffffffffffffffffffffff1681526020019081526020015f205f6101000a81548160ff0219169083151502179055508173ffffffffffffffffffffffffffffffffffffffff168373ffffffffffffffffffffffffffffffffffffffff167f17307eab39ab6107e8899845ad3d59bd9653f200f220920489ca2b5937696c318360405161120e9190611da5565b60405180910390a3505050565b5f8373ffffffffffffffffffffffffffffffffffffffff163b11156113c0578273ffffffffffffffffffffffffffffffffffffffff1663150b7a02868685856040518563ffffffff1660e01b815260040161127994939291906125de565b6020604051808303815f875af19250505080156112b457506040513d601f19601f820116820180604052508101906112b1919061263c565b60015b611335573d805f81146112e2576040519150601f19603f3d011682016040523d82523d5f602084013e6112e7565b606091505b505f81510361132d57836040517f64a0ae920000000000000000000000000000000000000000000000000000000081526004016113249190611eeb565b60405180910390fd5b805160208201fd5b63150b7a0260e01b7bffffffffffffffffffffffffffffffffffffffffffffffffffffffff1916817bffffffffffffffffffffffffffffffffffffffffffffffffffffffff1916146113be57836040517f64a0ae920000000000000000000000000000000000000000000000000000000081526004016113b59190611eeb565b60405180910390fd5b505b5050505050565b60606113d282610d3d565b505f6113dc611853565b90505f8151116113fa5760405180602001604052805f815250611425565b8061140484611869565b6040516020016114159291906126a1565b6040516020818303038152906040525b915050919050565b5f60025f8381526020019081526020015f205f9054906101000a900473ffffffffffffffffffffffffffffffffffffffff169050919050565b808061149e57505f73ffffffffffffffffffffffffffffffffffffffff168273ffffffffffffffffffffffffffffffffffffffff1614155b156115d0575f6114ad84610d3d565b90505f73ffffffffffffffffffffffffffffffffffffffff168373ffffffffffffffffffffffffffffffffffffffff161415801561151757508273ffffffffffffffffffffffffffffffffffffffff168173ffffffffffffffffffffffffffffffffffffffff1614155b801561152a57506115288184610bc2565b155b1561156c57826040517fa9fbf51f0000000000000000000000000000000000000000000000000000000081526004016115639190611eeb565b60405180910390fd5b81156115ce57838573ffffffffffffffffffffffffffffffffffffffff168273ffffffffffffffffffffffffffffffffffffffff167f8c5be1e5ebec7d5bd14f71427d1e84f3dd0314c0f7b2291e5b200ac8c7c3b92560405160405180910390a45b505b8360045f8581526020019081526020015f205f6101000a81548173ffffffffffffffffffffffffffffffffffffffff021916908373ffffffffffffffffffffffffffffffffffffffff16021790555050505050565b5f5f6116308461142d565b90505f73ffffffffffffffffffffffffffffffffffffffff168373ffffffffffffffffffffffffffffffffffffffff161461167157611670818486611933565b5b5f73ffffffffffffffffffffffffffffffffffffffff168173ffffffffffffffffffffffffffffffffffffffff16146116fc576116b05f855f5f611466565b600160035f8373ffffffffffffffffffffffffffffffffffffffff1673ffffffffffffffffffffffffffffffffffffffff1681526020019081526020015f205f82825403925050819055505b5f73ffffffffffffffffffffffffffffffffffffffff168573ffffffffffffffffffffffffffffffffffffffff161461177b57600160035f8773ffffffffffffffffffffffffffffffffffffffff1673ffffffffffffffffffffffffffffffffffffffff1681526020019081526020015f205f82825401925050819055505b8460025f8681526020019081526020015f205f6101000a81548173ffffffffffffffffffffffffffffffffffffffff021916908373ffffffffffffffffffffffffffffffffffffffff160217905550838573ffffffffffffffffffffffffffffffffffffffff168273ffffffffffffffffffffffffffffffffffffffff167fddf252ad1be2c89b69c2b068fc378daa952ba7f163c4a11628f55a4df523b3ef60405160405180910390a4809150509392505050565b61183a83836119f6565b61184e611845610dfc565b5f85858561121b565b505050565b606060405180602001604052805f815250905090565b60605f600161187784611ae9565b0190505f8167ffffffffffffffff8111156118955761189461211e565b5b6040519080825280601f01601f1916602001820160405280156118c75781602001600182028036833780820191505090505b5090505f82602083010190505b600115611928578080600190039150507f3031323334353637383961626364656600000000000000000000000000000000600a86061a8153600a858161191d5761191c6126c4565b5b0494505f85036118d4575b819350505050919050565b61193e838383611c3a565b6119f1575f73ffffffffffffffffffffffffffffffffffffffff168373ffffffffffffffffffffffffffffffffffffffff16036119b257806040517f7e2732890000000000000000000000000000000000000000000000000000000081526004016119a99190612057565b60405180910390fd5b81816040517f177e802f0000000000000000000000000000000000000000000000000000000081526004016119e89291906126f1565b60405180910390fd5b505050565b5f73ffffffffffffffffffffffffffffffffffffffff168273ffffffffffffffffffffffffffffffffffffffff1603611a66575f6040517f64a0ae92000000000000000000000000000000000000000000000000000000008152600401611a5d9190611eeb565b60405180910390fd5b5f611a7283835f610e15565b90505f73ffffffffffffffffffffffffffffffffffffffff168173ffffffffffffffffffffffffffffffffffffffff1614611ae4575f6040517f73c6ac6e000000000000000000000000000000000000000000000000000000008152600401611adb9190611eeb565b60405180910390fd5b505050565b5f5f5f90507a184f03e93ff9f4daa797ed6e38ed64bf6a1f0100000000000000008310611b45577a184f03e93ff9f4daa797ed6e38ed64bf6a1f0100000000000000008381611b3b57611b3a6126c4565b5b0492506040810190505b6d04ee2d6d415b85acef81000000008310611b82576d04ee2d6d415b85acef81000000008381611b7857611b776126c4565b5b0492506020810190505b662386f26fc100008310611bb157662386f26fc100008381611ba757611ba66126c4565b5b0492506010810190505b6305f5e1008310611bda576305f5e1008381611bd057611bcf6126c4565b5b0492506008810190505b6127108310611bff576127108381611bf557611bf46126c4565b5b0492506004810190505b60648310611c225760648381611c1857611c176126c4565b5b0492506002810190505b600a8310611c31576001810190505b80915050919050565b5f5f73ffffffffffffffffffffffffffffffffffffffff168373ffffffffffffffffffffffffffffffffffffffff1614158015611cf157508273ffffffffffffffffffffffffffffffffffffffff168473ffffffffffffffffffffffffffffffffffffffff161480611cb25750611cb18484610bc2565b5b80611cf057508273ffffffffffffffffffffffffffffffffffffffff16611cd883610dc3565b73ffffffffffffffffffffffffffffffffffffffff16145b5b90509392505050565b5f604051905090565b5f5ffd5b5f5ffd5b5f7fffffffff0000000000000000000000000000000000000000000000000000000082169050919050565b611d3f81611d0b565b8114611d49575f5ffd5b50565b5f81359050611d5a81611d36565b92915050565b5f60208284031215611d7557611d74611d03565b5b5f611d8284828501611d4c565b91505092915050565b5f8115159050919050565b611d9f81611d8b565b82525050565b5f602082019050611db85f830184611d96565b92915050565b5f81519050919050565b5f82825260208201905092915050565b8281835e5f83830152505050565b5f601f19601f8301169050919050565b5f611e0082611dbe565b611e0a8185611dc8565b9350611e1a818560208601611dd8565b611e2381611de6565b840191505092915050565b5f6020820190508181035f830152611e468184611df6565b905092915050565b5f819050919050565b611e6081611e4e565b8114611e6a575f5ffd5b50565b5f81359050611e7b81611e57565b92915050565b5f60208284031215611e9657611e95611d03565b5b5f611ea384828501611e6d565b91505092915050565b5f73ffffffffffffffffffffffffffffffffffffffff82169050919050565b5f611ed582611eac565b9050919050565b611ee581611ecb565b82525050565b5f602082019050611efe5f830184611edc565b92915050565b611f0d81611ecb565b8114611f17575f5ffd5b50565b5f81359050611f2881611f04565b92915050565b5f5f60408385031215611f4457611f43611d03565b5b5f611f5185828601611f1a565b9250506020611f6285828601611e6d565b9150509250929050565b5f5f5f60608486031215611f8357611f82611d03565b5b5f611f9086828701611f1a565b9350506020611fa186828701611f1a565b9250506040611fb286828701611e6d565b9150509250925092565b5f60ff82169050919050565b611fd181611fbc565b8114611fdb575f5ffd5b50565b5f81359050611fec81611fc8565b92915050565b5f6020828403121561200757612006611d03565b5b5f61201484828501611fde565b91505092915050565b5f6020828403121561203257612031611d03565b5b5f61203f84828501611f1a565b91505092915050565b61205181611e4e565b82525050565b5f60208201905061206a5f830184612048565b92915050565b61207981611d8b565b8114612083575f5ffd5b50565b5f8135905061209481612070565b92915050565b5f5f604083850312156120b0576120af611d03565b5b5f6120bd85828601611f1a565b92505060206120ce85828601612086565b9150509250929050565b5f5f604083850312156120ee576120ed611d03565b5b5f6120fb85828601611f1a565b925050602061210c85828601611fde565b9150509250929050565b5f5ffd5b5f5ffd5b7f4e487b71000000000000000000000000000000000000000000000000000000005f52604160045260245ffd5b61215482611de6565b810181811067ffffffffffffffff821117156121735761217261211e565b5b80604052505050565b5f612185611cfa565b9050612191828261214b565b919050565b5f67ffffffffffffffff8211156121b0576121af61211e565b5b6121b982611de6565b9050602081019050919050565b828183375f83830152505050565b5f6121e66121e184612196565b61217c565b9050828152602081018484840111156122025761220161211a565b5b61220d8482856121c6565b509392505050565b5f82601f83011261222957612228612116565b5b81356122398482602086016121d4565b91505092915050565b5f5f5f5f6080858703121561225a57612259611d03565b5b5f61226787828801611f1a565b945050602061227887828801611f1a565b935050604061228987828801611e6d565b925050606085013567ffffffffffffffff8111156122aa576122a9611d07565b5b6122b687828801612215565b91505092959194509250565b6122cb81611fbc565b82525050565b5f6020820190506122e45f8301846122c2565b92915050565b5f5f60408385031215612300576122ff611d03565b5b5f61230d85828601611f1a565b925050602061231e85828601611f1a565b9150509250929050565b7f4e487b71000000000000000000000000000000000000000000000000000000005f52602260045260245ffd5b5f600282049050600182168061236c57607f821691505b60208210810361237f5761237e612328565b5b50919050565b5f6060820190506123985f830186611edc565b6123a56020830185612048565b6123b26040830184611edc565b949350505050565b7f496e76616c6964206d696c6573746f6e65206c6576656c0000000000000000005f82015250565b5f6123ee601783611dc8565b91506123f9826123ba565b602082019050919050565b5f6020820190508181035f83015261241b816123e2565b9050919050565b7f416c726561647920636c61696d65642074686973206d696c6573746f6e6500005f82015250565b5f612456601e83611dc8565b915061246182612422565b602082019050919050565b5f6020820190508181035f8301526124838161244a565b9050919050565b7f4e487b71000000000000000000000000000000000000000000000000000000005f52601160045260245ffd5b5f6124c182611e4e565b91507fffffffffffffffffffffffffffffffffffffffffffffffffffffffffffffffff82036124f3576124f261248a565b5b600182019050919050565b7f547269766961537068657265204261646765732061726520536f756c626f756e5f8201527f6420616e642063616e6e6f74206265207472616e736665727265642e00000000602082015250565b5f612558603c83611dc8565b9150612563826124fe565b604082019050919050565b5f6020820190508181035f8301526125858161254c565b9050919050565b5f81519050919050565b5f82825260208201905092915050565b5f6125b08261258c565b6125ba8185612596565b93506125ca818560208601611dd8565b6125d381611de6565b840191505092915050565b5f6080820190506125f15f830187611edc565b6125fe6020830186611edc565b61260b6040830185612048565b818103606083015261261d81846125a6565b905095945050505050565b5f8151905061263681611d36565b92915050565b5f6020828403121561265157612650611d03565b5b5f61265e84828501612628565b91505092915050565b5f81905092915050565b5f61267b82611dbe565b6126858185612667565b9350612695818560208601611dd8565b80840191505092915050565b5f6126ac8285612671565b91506126b88284612671565b91508190509392505050565b7f4e487b71000000000000000000000000000000000000000000000000000000005f52601260045260245ffd5b5f6040820190506127045f830185611edc565b6127116020830184612048565b939250505056fea2646970667358221220d5d2839d17235530d2721898b9d432cb3f2c20c7891fc8aea50f40d5b2657c0a64736f6c634300081c0033",
  "linkReferences": {},
  "deployedLinkReferences": {}
}